{
  "contractName": "PiggyBank",
  "abi": [
    {
      "inputs": [],
      "stateMutability": "nonpayable",
      "type": "constructor"
    },
    {
      "anonymous": false,
      "inputs": [
        {
          "indexed": false,
          "internalType": "address",
          "name": "user",
          "type": "address"
        },
        {
          "indexed": false,
          "internalType": "uint256",
          "name": "amount",
          "type": "uint256"
        },
        {
          "indexed": false,
          "internalType": "uint256",
          "name": "timestamp",
          "type": "uint256"
        }
      ],
      "name": "ReceiveFunds",
      "type": "event"
    },
    {
      "anonymous": false,
      "inputs": [
        {
          "indexed": false,
          "internalType": "address",
          "name": "user",
          "type": "address"
        },
        {
          "indexed": false,
          "internalType": "uint256",
          "name": "amount",
          "type": "uint256"
        },
        {
          "indexed": false,
          "internalType": "uint256",
          "name": "timestamp",
          "type": "uint256"
        }
      ],
      "name": "WithdrawFunds",
      "type": "event"
    },
    {
      "stateMutability": "payable",
      "type": "receive"
    },
    {
      "inputs": [],
      "name": "owner",
      "outputs": [
        {
          "internalType": "address",
          "name": "",
          "type": "address"
        }
      ],
      "stateMutability": "view",
      "type": "function"
    },
    {
      "inputs": [
        {
          "internalType": "address",
          "name": "firstOwner",
          "type": "address"
        }
      ],
      "name": "init",
      "outputs": [],
      "stateMutability": "nonpayable",
      "type": "function"
    },
    {
      "inputs": [
        {
          "internalType": "uint256",
          "name": "amount",
          "type": "uint256"
        }
      ],
      "name": "withdraw",
      "outputs": [],
      "stateMutability": "nonpayable",
      "type": "function"
    }
  ],
  "bytecode": "0x60806040526000805460ff1916905534801561001a57600080fd5b506104078061002a6000396000f3fe6080604052600436106100385760003560e01c806319ab453c146100f45780632e1a7d4d146101165780638da5cb5b1461013657600080fd5b366100ef5760005473ffffffffffffffffffffffffffffffffffffffff6101009091041633146100af5760405162461bcd60e51b815260206004820181905260248201527f4f776e61626c653a2063616c6c6572206973206e6f7420746865206f776e657260448201526064015b60405180910390fd5b60408051338152346020820152428183015290517ff6cc378e47f605e7fadfb747fc046009ba383d749519550aa6f76fc8f22f6a0c9181900360600190a1005b600080fd5b34801561010057600080fd5b5061011461010f36600461037e565b61018a565b005b34801561012257600080fd5b506101146101313660046103b9565b610251565b34801561014257600080fd5b50600054610100900473ffffffffffffffffffffffffffffffffffffffff1660405173ffffffffffffffffffffffffffffffffffffffff909116815260200160405180910390f35b60005460ff16156101dd5760405162461bcd60e51b815260206004820152601c60248201527f436f6e747261637420616c726561647920696e697469616c697a65640000000060448201526064016100a6565b600080547fffffffffffffffffffffffffffffffffffffffffffffffffffffffffffffff0073ffffffffffffffffffffffffffffffffffffffff90931661010002929092167fffffffffffffffffffffff000000000000000000000000000000000000000000909216919091176001179055565b60005473ffffffffffffffffffffffffffffffffffffffff6101009091041633146102be5760405162461bcd60e51b815260206004820181905260248201527f4f776e61626c653a2063616c6c6572206973206e6f7420746865206f776e657260448201526064016100a6565b4781101561030e5760405162461bcd60e51b815260206004820152600f60248201527f416d6f756e7420746f6f206c6f7721000000000000000000000000000000000060448201526064016100a6565b604051339082156108fc029083906000818181858888f1935050505015801561033b573d6000803e3d6000fd5b506040805133815260208101839052428183015290517f850f3c7e08f80943d8666ef94f99a95a9f85b3fc39af2a08829aa61a276b7a429181900360600190a150565b60006020828403121561038f578081fd5b813573ffffffffffffffffffffffffffffffffffffffff811681146103b2578182fd5b9392505050565b6000602082840312156103ca578081fd5b503591905056fea26469706673582212206f9f7f9d35dae833bac23b0c6f619ce19df81fa1fa6cab4c745f824d8c1b9c1164736f6c63430008040033",
  "immutableReferences": {},
  "source": "pragma solidity ^0.8.0;\r\n\r\n// import \"@openzeppelin/contracts/access/Ownable.sol\";\r\n\r\n// contract PiggyBank is Ownable {\r\ncontract PiggyBank {\r\n    event ReceiveFunds(address user, uint256 amount, uint256 timestamp);\r\n    event WithdrawFunds(address user, uint256 amount, uint256 timestamp);\r\n\r\n    bool flag = false;\r\n    address private _owner;\r\n\r\n    // constructor() Ownable() {}\r\n    constructor() {}\r\n\r\n    function owner() public view virtual returns (address) {\r\n        return _owner;\r\n    }\r\n\r\n    function init(address firstOwner) public {\r\n      require(flag == false, \"Contract already initialized\");\r\n      _owner = firstOwner;\r\n      flag = true;\r\n    }\r\n\r\n    modifier onlyOwner() {\r\n        require(owner() == msg.sender, \"Ownable: caller is not the owner\");\r\n        _;\r\n    }\r\n\r\n    receive() external payable onlyOwner {\r\n        emit ReceiveFunds(msg.sender, msg.value, block.timestamp);\r\n    }\r\n\r\n    function withdraw(uint256 amount) external onlyOwner {\r\n        require(amount >= address(this).balance, \"Amount too low!\");\r\n        payable(msg.sender).transfer(amount);\r\n        emit WithdrawFunds(msg.sender, amount, block.timestamp);\r\n    }\r\n}\r\n",
  "sourcePath": "/mnt/c/Users/lesch/Desktop/tru-challengue/tru-contracts/contracts/PiggyBank.sol",
  "compiler": {
    "name": "solc",
    "version": "0.8.4+commit.c7e474f2.Emscripten.clang"
  },
  "schemaVersion": "3.3.4",
  "updatedAt": "2021-04-29T06:22:17.353Z",
  "devdoc": {
    "kind": "dev",
    "methods": {},
    "version": 1
  },
  "userdoc": {
    "kind": "user",
    "methods": {},
    "version": 1
  }
}