{
  "contractName": "PiggyBankFactory",
  "abi": [
    {
      "inputs": [
        {
          "internalType": "address",
          "name": "_implementation",
          "type": "address"
        }
      ],
      "stateMutability": "nonpayable",
      "type": "constructor"
    },
    {
      "anonymous": false,
      "inputs": [
        {
          "indexed": false,
          "internalType": "address",
          "name": "user",
          "type": "address"
        },
        {
          "indexed": false,
          "internalType": "address",
          "name": "bankAccount",
          "type": "address"
        }
      ],
      "name": "UserRegistered",
      "type": "event"
    },
    {
      "inputs": [],
      "name": "getPiggyBankAccount",
      "outputs": [
        {
          "internalType": "address",
          "name": "",
          "type": "address"
        }
      ],
      "stateMutability": "view",
      "type": "function"
    },
    {
      "inputs": [],
      "name": "register",
      "outputs": [
        {
          "internalType": "address",
          "name": "",
          "type": "address"
        }
      ],
      "stateMutability": "nonpayable",
      "type": "function"
    }
  ],
  "bytecode": "0x608060405234801561001057600080fd5b5060405161040c38038061040c83398101604081905261002f91610054565b600180546001600160a01b0319166001600160a01b0392909216919091179055610082565b600060208284031215610065578081fd5b81516001600160a01b038116811461007b578182fd5b9392505050565b61037b806100916000396000f3fe608060405234801561001057600080fd5b50600436106100365760003560e01c80631aa3a0081461003b578063dc37d34e1461006c575b600080fd5b610043610097565b60405173ffffffffffffffffffffffffffffffffffffffff909116815260200160405180910390f35b3360009081526020819052604090205473ffffffffffffffffffffffffffffffffffffffff16610043565b3360009081526020819052604081205473ffffffffffffffffffffffffffffffffffffffff1615610129576040517f08c379a000000000000000000000000000000000000000000000000000000000815260206004820152601b60248201527f4163636f756e7420616c7265616479207265676973746572656421000000000060448201526064015b60405180910390fd5b60015460009061014e9073ffffffffffffffffffffffffffffffffffffffff16610263565b336000818152602081905260409081902080547fffffffffffffffffffffffff00000000000000000000000000000000000000001673ffffffffffffffffffffffffffffffffffffffff851690811790915590517f19ab453c00000000000000000000000000000000000000000000000000000000815260048101929092529192508291906319ab453c90602401600060405180830381600087803b1580156101f657600080fd5b505af115801561020a573d6000803e3d6000fd5b50506040805133815273ffffffffffffffffffffffffffffffffffffffff861660208201527f2138b9314634f9fdd5e49bee3eaf17ca557b6637524d0db759711c3bfcd3d850935001905060405180910390a150919050565b60006040517f3d602d80600a3d3981f3363d3d373d3d3d363d7300000000000000000000000081528260601b60148201527f5af43d82803e903d91602b57fd5bf3000000000000000000000000000000000060288201526037816000f091505073ffffffffffffffffffffffffffffffffffffffff8116610340576040517f08c379a000000000000000000000000000000000000000000000000000000000815260206004820152601660248201527f455243313136373a20637265617465206661696c6564000000000000000000006044820152606401610120565b91905056fea26469706673582212209fb836d58145f0e2d1cf625d5822ccea85246d8276d3ddc5ccd9538ce1d7a89a64736f6c63430008040033",
  "immutableReferences": {},
  "source": "pragma solidity ^0.8.0;\r\n\r\nimport \"./PiggyBank.sol\";\r\nimport \"@openzeppelin/contracts/proxy/Clones.sol\";\r\n\r\ncontract PiggyBankFactory {\r\n    event UserRegistered(address user, address bankAccount);\r\n\r\n    mapping(address => address) piggyBankAccounts;\r\n    address implementation;\r\n\r\n    constructor(address _implementation) {\r\n        implementation = _implementation;\r\n    }\r\n\r\n    // updateImplementation()\r\n    // implementation()\r\n\r\n    function getPiggyBankAccount() external view returns (address) {\r\n        return piggyBankAccounts[msg.sender];\r\n    }\r\n\r\n    function register() external returns (address) {\r\n        require(\r\n            piggyBankAccounts[msg.sender] == address(0),\r\n            \"Account already registered!\"\r\n        );\r\n\r\n        address newAccount = Clones.clone(implementation);\r\n        piggyBankAccounts[msg.sender] = newAccount;\r\n\r\n        PiggyBank piggyBank = PiggyBank(payable(newAccount));\r\n        piggyBank.init(msg.sender);\r\n        \r\n        emit UserRegistered(msg.sender, newAccount);\r\n\r\n        return newAccount;\r\n    }\r\n}\r\n",
  "sourcePath": "/mnt/c/Users/lesch/Desktop/tru-challengue/tru-contracts/contracts/PiggyBankFactory.sol",
  "compiler": {
    "name": "solc",
    "version": "0.8.4+commit.c7e474f2.Emscripten.clang"
  },
  "schemaVersion": "3.3.4",
  "updatedAt": "2021-04-29T06:22:17.368Z",
  "devdoc": {
    "kind": "dev",
    "methods": {},
    "version": 1
  },
  "userdoc": {
    "kind": "user",
    "methods": {},
    "version": 1
  }
}